{"abi":[{"type":"constructor","inputs":[{"name":"treasury","type":"address","internalType":"address"}],"stateMutability":"nonpayable"},{"type":"function","name":"consumed","inputs":[{"name":"","type":"bytes32","internalType":"bytes32"}],"outputs":[{"name":"","type":"bool","internalType":"bool"}],"stateMutability":"view"},{"type":"function","name":"mirrorTransfer","inputs":[{"name":"idempotencyKey","type":"bytes32","internalType":"bytes32"},{"name":"walletEventId","type":"bytes32","internalType":"bytes32"},{"name":"tokenType","type":"bytes32","internalType":"bytes32"},{"name":"from","type":"address","internalType":"address"},{"name":"to","type":"address","internalType":"address"},{"name":"amount","type":"uint256","internalType":"uint256"}],"outputs":[],"stateMutability":"nonpayable"},{"type":"function","name":"owner","inputs":[],"outputs":[{"name":"","type":"address","internalType":"address"}],"stateMutability":"view"},{"type":"function","name":"renounceOwnership","inputs":[],"outputs":[],"stateMutability":"nonpayable"},{"type":"function","name":"transferOwnership","inputs":[{"name":"newOwner","type":"address","internalType":"address"}],"outputs":[],"stateMutability":"nonpayable"},{"type":"event","name":"MirrorTransfer","inputs":[{"name":"idempotencyKey","type":"bytes32","indexed":true,"internalType":"bytes32"},{"name":"walletEventId","type":"bytes32","indexed":true,"internalType":"bytes32"},{"name":"tokenType","type":"bytes32","indexed":false,"internalType":"bytes32"},{"name":"from","type":"address","indexed":false,"internalType":"address"},{"name":"to","type":"address","indexed":false,"internalType":"address"},{"name":"amount","type":"uint256","indexed":false,"internalType":"uint256"}],"anonymous":false},{"type":"event","name":"OwnershipTransferred","inputs":[{"name":"previousOwner","type":"address","indexed":true,"internalType":"address"},{"name":"newOwner","type":"address","indexed":true,"internalType":"address"}],"anonymous":false},{"type":"error","name":"OwnableInvalidOwner","inputs":[{"name":"owner","type":"address","internalType":"address"}]},{"type":"error","name":"OwnableUnauthorizedAccount","inputs":[{"name":"account","type":"address","internalType":"address"}]}],"bytecode":{"object":"0x6080604052348015600e575f5ffd5b5060405161045c38038061045c833981016040819052602b9160b4565b806001600160a01b038116605857604051631e4fbdf760e01b81525f600482015260240160405180910390fd5b605f816065565b505060df565b5f80546001600160a01b038381166001600160a01b0319831681178455604051919092169283917f8be0079c531659141344cd1fd0a4f28419497f9722a3daafe3b4186f6b6457e09190a35050565b5f6020828403121560c3575f5ffd5b81516001600160a01b038116811460d8575f5ffd5b9392505050565b610370806100ec5f395ff3fe608060405234801561000f575f5ffd5b5060043610610055575f3560e01c80634648c94314610059578063613715e114610090578063715018a6146100a55780638da5cb5b146100ad578063f2fde38b146100c7575b5f5ffd5b61007b610067366004610294565b60016020525f908152604090205460ff1681565b60405190151581526020015b60405180910390f35b6100a361009e3660046102c6565b6100da565b005b6100a36101c9565b5f546040516001600160a01b039091168152602001610087565b6100a36100d536600461031a565b6101dc565b6100e2610219565b5f8681526001602052604090205460ff16156101455760405162461bcd60e51b815260206004820152601760248201527f4d4952524f525f414c52454144595f434f4e53554d454400000000000000000060448201526064015b60405180910390fd5b5f86815260016020819052604091829020805460ff1916909117905551859087907f5eb0f5bbec6f4c52ec9aa7e6e835114cae8485a69190ad2b79febe26ff3bbfaa906101b99088908890889088909384526001600160a01b03928316602085015291166040830152606082015260800190565b60405180910390a3505050505050565b6101d1610219565b6101da5f610245565b565b6101e4610219565b6001600160a01b03811661020d57604051631e4fbdf760e01b81525f600482015260240161013c565b61021681610245565b50565b5f546001600160a01b031633146101da5760405163118cdaa760e01b815233600482015260240161013c565b5f80546001600160a01b038381166001600160a01b0319831681178455604051919092169283917f8be0079c531659141344cd1fd0a4f28419497f9722a3daafe3b4186f6b6457e09190a35050565b5f602082840312156102a4575f5ffd5b5035919050565b80356001600160a01b03811681146102c1575f5ffd5b919050565b5f5f5f5f5f5f60c087890312156102db575f5ffd5b8635955060208701359450604087013593506102f9606088016102ab565b9250610307608088016102ab565b915060a087013590509295509295509295565b5f6020828403121561032a575f5ffd5b610333826102ab565b939250505056fea2646970667358221220465ab5f1c37aafc997e0dbcec532c9e0dd99ecd7cab9bad83beb5cbcf820126e64736f6c634300081c0033","linkReferences":{}},"methodIdentifiers":{"consumed(bytes32)":"4648c943","mirrorTransfer(bytes32,bytes32,bytes32,address,address,uint256)":"613715e1","owner()":"8da5cb5b","renounceOwnership()":"715018a6","transferOwnership(address)":"f2fde38b"},"id":31}