{"abi":[{"type":"constructor","inputs":[{"name":"_goldUsdFeed","type":"address","internalType":"address"},{"name":"_ethUsdFeed","type":"address","internalType":"address"}],"stateMutability":"nonpayable"},{"type":"receive","stateMutability":"payable"},{"type":"function","name":"allowance","inputs":[{"name":"owner","type":"address","internalType":"address"},{"name":"spender","type":"address","internalType":"address"}],"outputs":[{"name":"","type":"uint256","internalType":"uint256"}],"stateMutability":"view"},{"type":"function","name":"approve","inputs":[{"name":"spender","type":"address","internalType":"address"},{"name":"value","type":"uint256","internalType":"uint256"}],"outputs":[{"name":"","type":"bool","internalType":"bool"}],"stateMutability":"nonpayable"},{"type":"function","name":"balanceOf","inputs":[{"name":"account","type":"address","internalType":"address"}],"outputs":[{"name":"","type":"uint256","internalType":"uint256"}],"stateMutability":"view"},{"type":"function","name":"burn","inputs":[{"name":"from","type":"address","internalType":"address"},{"name":"amount","type":"uint256","internalType":"uint256"}],"outputs":[],"stateMutability":"nonpayable"},{"type":"function","name":"collateralRatioBps","inputs":[],"outputs":[{"name":"","type":"uint16","internalType":"uint16"}],"stateMutability":"view"},{"type":"function","name":"decimals","inputs":[],"outputs":[{"name":"","type":"uint8","internalType":"uint8"}],"stateMutability":"view"},{"type":"function","name":"depositAndMint","inputs":[{"name":"to","type":"address","internalType":"address"},{"name":"minOut","type":"uint256","internalType":"uint256"}],"outputs":[{"name":"out","type":"uint256","internalType":"uint256"}],"stateMutability":"payable"},{"type":"function","name":"ethPriceFeed","inputs":[],"outputs":[{"name":"","type":"address","internalType":"contract AggregatorV3Interface"}],"stateMutability":"view"},{"type":"function","name":"goldPriceFeed","inputs":[],"outputs":[{"name":"","type":"address","internalType":"contract AggregatorV3Interface"}],"stateMutability":"view"},{"type":"function","name":"mint","inputs":[{"name":"to","type":"address","internalType":"address"},{"name":"amount","type":"uint256","internalType":"uint256"}],"outputs":[],"stateMutability":"nonpayable"},{"type":"function","name":"name","inputs":[],"outputs":[{"name":"","type":"string","internalType":"string"}],"stateMutability":"view"},{"type":"function","name":"owner","inputs":[],"outputs":[{"name":"","type":"address","internalType":"address"}],"stateMutability":"view"},{"type":"function","name":"pause","inputs":[],"outputs":[],"stateMutability":"nonpayable"},{"type":"function","name":"paused","inputs":[],"outputs":[{"name":"","type":"bool","internalType":"bool"}],"stateMutability":"view"},{"type":"function","name":"previewMintOut","inputs":[{"name":"ethAmountWei","type":"uint256","internalType":"uint256"}],"outputs":[{"name":"axgOutWei","type":"uint256","internalType":"uint256"}],"stateMutability":"view"},{"type":"function","name":"previewPostMintRatioBps","inputs":[{"name":"ethInWei","type":"uint256","internalType":"uint256"},{"name":"axgOutWei","type":"uint256","internalType":"uint256"}],"outputs":[{"name":"bps","type":"uint256","internalType":"uint256"}],"stateMutability":"view"},{"type":"function","name":"renounceOwnership","inputs":[],"outputs":[],"stateMutability":"nonpayable"},{"type":"function","name":"requiredEthForTarget","inputs":[],"outputs":[{"name":"weiNeeded","type":"uint256","internalType":"uint256"}],"stateMutability":"view"},{"type":"function","name":"reserveRatioBps","inputs":[],"outputs":[{"name":"bps","type":"uint256","internalType":"uint256"}],"stateMutability":"view"},{"type":"function","name":"setCollateralRatioBps","inputs":[{"name":"newBps","type":"uint16","internalType":"uint16"}],"outputs":[],"stateMutability":"nonpayable"},{"type":"function","name":"symbol","inputs":[],"outputs":[{"name":"","type":"string","internalType":"string"}],"stateMutability":"view"},{"type":"function","name":"totalSupply","inputs":[],"outputs":[{"name":"","type":"uint256","internalType":"uint256"}],"stateMutability":"view"},{"type":"function","name":"transfer","inputs":[{"name":"to","type":"address","internalType":"address"},{"name":"value","type":"uint256","internalType":"uint256"}],"outputs":[{"name":"","type":"bool","internalType":"bool"}],"stateMutability":"nonpayable"},{"type":"function","name":"transferFrom","inputs":[{"name":"from","type":"address","internalType":"address"},{"name":"to","type":"address","internalType":"address"},{"name":"value","type":"uint256","internalType":"uint256"}],"outputs":[{"name":"","type":"bool","internalType":"bool"}],"stateMutability":"nonpayable"},{"type":"function","name":"transferOwnership","inputs":[{"name":"newOwner","type":"address","internalType":"address"}],"outputs":[],"stateMutability":"nonpayable"},{"type":"function","name":"unpause","inputs":[],"outputs":[],"stateMutability":"nonpayable"},{"type":"event","name":"Approval","inputs":[{"name":"owner","type":"address","indexed":true,"internalType":"address"},{"name":"spender","type":"address","indexed":true,"internalType":"address"},{"name":"value","type":"uint256","indexed":false,"internalType":"uint256"}],"anonymous":false},{"type":"event","name":"CollateralRatioUpdated","inputs":[{"name":"oldBps","type":"uint16","indexed":false,"internalType":"uint16"},{"name":"newBps","type":"uint16","indexed":false,"internalType":"uint16"}],"anonymous":false},{"type":"event","name":"DepositMint","inputs":[{"name":"sender","type":"address","indexed":true,"internalType":"address"},{"name":"to","type":"address","indexed":true,"internalType":"address"},{"name":"ethIn","type":"uint256","indexed":false,"internalType":"uint256"},{"name":"axgOut","type":"uint256","indexed":false,"internalType":"uint256"}],"anonymous":false},{"type":"event","name":"OwnershipTransferred","inputs":[{"name":"previousOwner","type":"address","indexed":true,"internalType":"address"},{"name":"newOwner","type":"address","indexed":true,"internalType":"address"}],"anonymous":false},{"type":"event","name":"Paused","inputs":[{"name":"account","type":"address","indexed":false,"internalType":"address"}],"anonymous":false},{"type":"event","name":"Transfer","inputs":[{"name":"from","type":"address","indexed":true,"internalType":"address"},{"name":"to","type":"address","indexed":true,"internalType":"address"},{"name":"value","type":"uint256","indexed":false,"internalType":"uint256"}],"anonymous":false},{"type":"event","name":"Unpaused","inputs":[{"name":"account","type":"address","indexed":false,"internalType":"address"}],"anonymous":false},{"type":"error","name":"ERC20InsufficientAllowance","inputs":[{"name":"spender","type":"address","internalType":"address"},{"name":"allowance","type":"uint256","internalType":"uint256"},{"name":"needed","type":"uint256","internalType":"uint256"}]},{"type":"error","name":"ERC20InsufficientBalance","inputs":[{"name":"sender","type":"address","internalType":"address"},{"name":"balance","type":"uint256","internalType":"uint256"},{"name":"needed","type":"uint256","internalType":"uint256"}]},{"type":"error","name":"ERC20InvalidApprover","inputs":[{"name":"approver","type":"address","internalType":"address"}]},{"type":"error","name":"ERC20InvalidReceiver","inputs":[{"name":"receiver","type":"address","internalType":"address"}]},{"type":"error","name":"ERC20InvalidSender","inputs":[{"name":"sender","type":"address","internalType":"address"}]},{"type":"error","name":"ERC20InvalidSpender","inputs":[{"name":"spender","type":"address","internalType":"address"}]},{"type":"error","name":"EnforcedPause","inputs":[]},{"type":"error","name":"ExpectedPause","inputs":[]},{"type":"error","name":"OwnableInvalidOwner","inputs":[{"name":"owner","type":"address","internalType":"address"}]},{"type":"error","name":"OwnableUnauthorizedAccount","inputs":[{"name":"account","type":"address","internalType":"address"}]}],"bytecode":{"object":"0x60806040526007805461ffff60a01b191661075360a31b179055348015610024575f5ffd5b506040516118a73803806118a783398101604081905261004391610196565b336040518060400160405280601481526020017f4158505420476f6c6420537461626c65636f696e0000000000000000000000008152506040518060400160405280600381526020016241584760e81b81525081600390816100a5919061025f565b5060046100b2828261025f565b5050506001600160a01b0381166100e257604051631e4fbdf760e01b81525f600482015260240160405180910390fd5b6100eb8161012a565b506005805460ff60a01b19169055600680546001600160a01b039384166001600160a01b03199182161790915560078054929093169116179055610319565b600580546001600160a01b038381166001600160a01b0319831681179093556040519116919082907f8be0079c531659141344cd1fd0a4f28419497f9722a3daafe3b4186f6b6457e0905f90a35050565b80516001600160a01b0381168114610191575f5ffd5b919050565b5f5f604083850312156101a7575f5ffd5b6101b08361017b565b91506101be6020840161017b565b90509250929050565b634e487b7160e01b5f52604160045260245ffd5b600181811c908216806101ef57607f821691505b60208210810361020d57634e487b7160e01b5f52602260045260245ffd5b50919050565b601f82111561025a57805f5260205f20601f840160051c810160208510156102385750805b601f840160051c820191505b81811015610257575f8155600101610244565b50505b505050565b81516001600160401b03811115610278576102786101c7565b61028c8161028684546101db565b84610213565b6020601f8211600181146102be575f83156102a75750848201515b5f19600385901b1c1916600184901b178455610257565b5f84815260208120601f198516915b828110156102ed57878501518255602094850194600190920191016102cd565b508482101561030a57868401515f19600387901b60f8161c191681555b50505050600190811b01905550565b611581806103265f395ff3fe60806040526004361061017e575f3560e01c80638456cb59116100cd578063ad6222af11610087578063c422f9d011610062578063c422f9d014610444578063d3148fb614610463578063dd62ed3e14610476578063f2fde38b146104ba575f5ffd5b8063ad6222af146103f2578063af7665ce14610411578063c383d34414610430575f5ffd5b80638456cb59146103475780638da5cb5b1461035b578063911fbfd61461038c57806395d89b41146103a05780639dc29fac146103b4578063a9059cbb146103d3575f5ffd5b80633f4ba83a116101385780635c975abb116101135780635c975abb146102c25780636ded9d48146102e057806370a08231146102ff578063715018a614610333575f5ffd5b80633f4ba83a1461025957806340c10f191461026f578063593855a01461028e575f5ffd5b806306fdde0314610189578063095ea7b3146101b357806318160ddd146101e257806323b872dd146102005780632d2a3ee11461021f578063313ce5671461023e575f5ffd5b3661018557005b5f5ffd5b348015610194575f5ffd5b5061019d6104d9565b6040516101aa91906111d0565b60405180910390f35b3480156101be575f5ffd5b506101d26101cd366004611220565b610569565b60405190151581526020016101aa565b3480156101ed575f5ffd5b506002545b6040519081526020016101aa565b34801561020b575f5ffd5b506101d261021a366004611248565b610582565b34801561022a575f5ffd5b506101f2610239366004611282565b6105a5565b348015610249575f5ffd5b50604051601281526020016101aa565b348015610264575f5ffd5b5061026d61066f565b005b34801561027a575f5ffd5b5061026d610289366004611220565b610681565b348015610299575f5ffd5b506007546102af90600160a01b900461ffff1681565b60405161ffff90911681526020016101aa565b3480156102cd575f5ffd5b50600554600160a01b900460ff166101d2565b3480156102eb575f5ffd5b5061026d6102fa366004611299565b610697565b34801561030a575f5ffd5b506101f26103193660046112c1565b6001600160a01b03165f9081526020819052604090205490565b34801561033e575f5ffd5b5061026d610761565b348015610352575f5ffd5b5061026d610772565b348015610366575f5ffd5b506005546001600160a01b03165b6040516001600160a01b0390911681526020016101aa565b348015610397575f5ffd5b506101f2610782565b3480156103ab575f5ffd5b5061019d610866565b3480156103bf575f5ffd5b5061026d6103ce366004611220565b610875565b3480156103de575f5ffd5b506101d26103ed366004611220565b610887565b3480156103fd575f5ffd5b506101f261040c3660046112da565b610894565b34801561041c575f5ffd5b50600754610374906001600160a01b031681565b34801561043b575f5ffd5b506101f2610983565b34801561044f575f5ffd5b50600654610374906001600160a01b031681565b6101f2610471366004611220565b610a53565b348015610481575f5ffd5b506101f26104903660046112fa565b6001600160a01b039182165f90815260016020908152604080832093909416825291909152205490565b3480156104c5575f5ffd5b5061026d6104d43660046112c1565b610bd0565b6060600380546104e89061132b565b80601f01602080910402602001604051908101604052809291908181526020018280546105149061132b565b801561055f5780601f106105365761010080835404028352916020019161055f565b820191905f5260205f20905b81548152906001019060200180831161054257829003601f168201915b5050505050905090565b5f33610576818585610c0d565b60019150505b92915050565b5f3361058f858285610c1f565b61059a858585610c9a565b506001949350505050565b5f5f82116105e35760405162461bcd60e51b81526020600482015260066024820152650dcde40cae8d60d31b60448201526064015b60405180910390fd5b6006545f9081906105fc906001600160a01b0316610cf7565b60075491935091505f90819061061a906001600160a01b0316610cf7565b90925090505f61062b84600a61145a565b6106358489611468565b61063f9190611468565b90505f61064d83600a61145a565b6106579087611468565b9050610663818361147f565b98975050505050505050565b610677610e05565b61067f610e32565b565b610689610e05565b6106938282610e87565b5050565b61069f610e05565b6127108161ffff16101580156106bb57506175308161ffff1611155b6106fc5760405162461bcd60e51b8152602060048201526012602482015271726174696f206f7574206f662072616e676560701b60448201526064016105da565b6007805461ffff838116600160a01b81810261ffff60a01b1985161790945560408051949093049091168084526020840191909152917faced44f12dc033ce1b5e572f3e70d140049ee6ad5a39e9c1a50def34d61ed269910160405180910390a15050565b610769610e05565b61067f5f610ebb565b61077a610e05565b61067f610f0c565b5f5f61078d60025490565b9050805f0361079d575f91505090565b6006545f9081906107b6906001600160a01b0316610cf7565b60075491935091505f9081906107d4906001600160a01b0316610cf7565b90925090505f6107e584600a61145a565b6107ef9084611468565b6107fb90612710611468565b600754600160a01b900461ffff1661081484600a61145a565b61081e888a611468565b6108289190611468565b6108329190611468565b61083c919061147f565b9050804710610851575f965050505050505090565b61085b478261149e565b965050505050505090565b6060600480546104e89061132b565b61087d610e05565b6106938282610f4f565b5f33610576818585610c9a565b6006545f90819081906108af906001600160a01b0316610cf7565b60075491935091505f9081906108cd906001600160a01b0316610cf7565b90925090505f6108dd88476114b1565b90505f876108ea60025490565b6108f491906114b1565b9050805f0361090c575f19965050505050505061057c565b5f61091886600a61145a565b6109228685611468565b61092c9190611468565b61093890612710611468565b90505f61094685600a61145a565b6109508985611468565b61095a9190611468565b905080156109715761096c818361147f565b610974565b5f195b9b9a5050505050505050505050565b6006545f908190819061099e906001600160a01b0316610cf7565b60075491935091505f9081906109bc906001600160a01b0316610cf7565b915091505f6109ca60025490565b9050805f036109df575f199550505050505090565b5f6109eb85600a61145a565b6109f58547611468565b6109ff9190611468565b610a0b90612710611468565b90505f610a1984600a61145a565b610a238885611468565b610a2d9190611468565b90508015610a4457610a3f818361147f565b610a47565b5f195b97505050505050505090565b5f610a5c610f83565b6001600160a01b038316610a9b5760405162461bcd60e51b815260206004820152600660248201526562616420746f60d01b60448201526064016105da565b5f3411610ad35760405162461bcd60e51b81526020600482015260066024820152650dcde40cae8d60d31b60448201526064016105da565b610adc346105a5565b905081811015610b195760405162461bcd60e51b8152602060048201526008602482015267736c69707061676560c01b60448201526064016105da565b5f610b243483610894565b600754909150600160a01b900461ffff16811015610b795760405162461bcd60e51b8152602060048201526012602482015271636f6c6c61746572616c20746f6f206c6f7760701b60448201526064016105da565b610b838483610e87565b60408051348152602081018490526001600160a01b0386169133917f56a52bb4b927204f183d25958087fa6a6526c3695298596965c8381501c27d31910160405180910390a35092915050565b610bd8610e05565b6001600160a01b038116610c0157604051631e4fbdf760e01b81525f60048201526024016105da565b610c0a81610ebb565b50565b610c1a8383836001610fae565b505050565b6001600160a01b038381165f908152600160209081526040808320938616835292905220545f198114610c945781811015610c8657604051637dc7a0d960e11b81526001600160a01b038416600482015260248101829052604481018390526064016105da565b610c9484848484035f610fae565b50505050565b6001600160a01b038316610cc357604051634b637e8f60e11b81525f60048201526024016105da565b6001600160a01b038216610cec5760405163ec442f0560e01b81525f60048201526024016105da565b610c1a838383611080565b5f5f5f836001600160a01b031663feaf968c6040518163ffffffff1660e01b815260040160a060405180830381865afa158015610d36573d5f5f3e3d5ffd5b505050506040513d601f19601f82011682018060405250810190610d5a91906114dd565b5050509150505f8113610d9b5760405162461bcd60e51b815260206004820152600960248201526862616420707269636560b81b60448201526064016105da565b836001600160a01b031663313ce5676040518163ffffffff1660e01b8152600401602060405180830381865afa158015610dd7573d5f5f3e3d5ffd5b505050506040513d601f19601f82011682018060405250810190610dfb919061152b565b9094909350915050565b6005546001600160a01b0316331461067f5760405163118cdaa760e01b81523360048201526024016105da565b610e3a6111a6565b6005805460ff60a01b191690557f5db9ee0a495bf2e6ff9c91a7834c1ba4fdd244a5e8aa4e537bd38aeae4b073aa335b6040516001600160a01b03909116815260200160405180910390a1565b6001600160a01b038216610eb05760405163ec442f0560e01b81525f60048201526024016105da565b6106935f8383611080565b600580546001600160a01b038381166001600160a01b0319831681179093556040519116919082907f8be0079c531659141344cd1fd0a4f28419497f9722a3daafe3b4186f6b6457e0905f90a35050565b610f14610f83565b6005805460ff60a01b1916600160a01b1790557f62e78cea01bee320cd4e420270b5ea74000d11b0c9f74754ebdbfc544b05a258610e6a3390565b6001600160a01b038216610f7857604051634b637e8f60e11b81525f60048201526024016105da565b610693825f83611080565b600554600160a01b900460ff161561067f5760405163d93c066560e01b815260040160405180910390fd5b6001600160a01b038416610fd75760405163e602df0560e01b81525f60048201526024016105da565b6001600160a01b03831661100057604051634a1406b160e11b81525f60048201526024016105da565b6001600160a01b038085165f9081526001602090815260408083209387168352929052208290558015610c9457826001600160a01b0316846001600160a01b03167f8c5be1e5ebec7d5bd14f71427d1e84f3dd0314c0f7b2291e5b200ac8c7c3b9258460405161107291815260200190565b60405180910390a350505050565b6001600160a01b0383166110aa578060025f82825461109f91906114b1565b9091555061111a9050565b6001600160a01b0383165f90815260208190526040902054818110156110fc5760405163391434e360e21b81526001600160a01b038516600482015260248101829052604481018390526064016105da565b6001600160a01b0384165f9081526020819052604090209082900390555b6001600160a01b03821661113657600280548290039055611154565b6001600160a01b0382165f9081526020819052604090208054820190555b816001600160a01b0316836001600160a01b03167fddf252ad1be2c89b69c2b068fc378daa952ba7f163c4a11628f55a4df523b3ef8360405161119991815260200190565b60405180910390a3505050565b600554600160a01b900460ff1661067f57604051638dfc202b60e01b815260040160405180910390fd5b602081525f82518060208401528060208501604085015e5f604082850101526040601f19601f83011684010191505092915050565b80356001600160a01b038116811461121b575f5ffd5b919050565b5f5f60408385031215611231575f5ffd5b61123a83611205565b946020939093013593505050565b5f5f5f6060848603121561125a575f5ffd5b61126384611205565b925061127160208501611205565b929592945050506040919091013590565b5f60208284031215611292575f5ffd5b5035919050565b5f602082840312156112a9575f5ffd5b813561ffff811681146112ba575f5ffd5b9392505050565b5f602082840312156112d1575f5ffd5b6112ba82611205565b5f5f604083850312156112eb575f5ffd5b50508035926020909101359150565b5f5f6040838503121561130b575f5ffd5b61131483611205565b915061132260208401611205565b90509250929050565b600181811c9082168061133f57607f821691505b60208210810361135d57634e487b7160e01b5f52602260045260245ffd5b50919050565b634e487b7160e01b5f52601160045260245ffd5b6001815b60018411156113b25780850481111561139657611396611363565b60018416156113a457908102905b60019390931c92800261137b565b935093915050565b5f826113c85750600161057c565b816113d457505f61057c565b81600181146113ea57600281146113f457611410565b600191505061057c565b60ff84111561140557611405611363565b50506001821b61057c565b5060208310610133831016604e8410600b8410161715611433575081810a61057c565b61143f5f198484611377565b805f190482111561145257611452611363565b029392505050565b5f6112ba60ff8416836113ba565b808202811582820484141761057c5761057c611363565b5f8261149957634e487b7160e01b5f52601260045260245ffd5b500490565b8181038181111561057c5761057c611363565b8082018082111561057c5761057c611363565b805169ffffffffffffffffffff8116811461121b575f5ffd5b5f5f5f5f5f60a086880312156114f1575f5ffd5b6114fa866114c4565b6020870151604088015160608901519297509095509350915061151f608087016114c4565b90509295509295909350565b5f6020828403121561153b575f5ffd5b815160ff811681146112ba575f5ffdfea26469706673582212201ae84c55bcf558e7b9e6b66e2787e2ca25f9547365255987a7d28944e9d06bcd64736f6c634300081c0033","linkReferences":{}},"methodIdentifiers":{"allowance(address,address)":"dd62ed3e","approve(address,uint256)":"095ea7b3","balanceOf(address)":"70a08231","burn(address,uint256)":"9dc29fac","collateralRatioBps()":"593855a0","decimals()":"313ce567","depositAndMint(address,uint256)":"d3148fb6","ethPriceFeed()":"af7665ce","goldPriceFeed()":"c422f9d0","mint(address,uint256)":"40c10f19","name()":"06fdde03","owner()":"8da5cb5b","pause()":"8456cb59","paused()":"5c975abb","previewMintOut(uint256)":"2d2a3ee1","previewPostMintRatioBps(uint256,uint256)":"ad6222af","renounceOwnership()":"715018a6","requiredEthForTarget()":"911fbfd6","reserveRatioBps()":"c383d344","setCollateralRatioBps(uint16)":"6ded9d48","symbol()":"95d89b41","totalSupply()":"18160ddd","transfer(address,uint256)":"a9059cbb","transferFrom(address,address,uint256)":"23b872dd","transferOwnership(address)":"f2fde38b","unpause()":"3f4ba83a"},"id":25}