{"abi":[{"type":"constructor","inputs":[{"name":"_decimals","type":"uint8","internalType":"uint8"},{"name":"_initialAnswer","type":"int256","internalType":"int256"},{"name":"desc","type":"string","internalType":"string"}],"stateMutability":"nonpayable"},{"type":"function","name":"decimals","inputs":[],"outputs":[{"name":"","type":"uint8","internalType":"uint8"}],"stateMutability":"view"},{"type":"function","name":"description","inputs":[],"outputs":[{"name":"","type":"string","internalType":"string"}],"stateMutability":"view"},{"type":"function","name":"getAnswer","inputs":[{"name":"","type":"uint80","internalType":"uint80"}],"outputs":[{"name":"","type":"int256","internalType":"int256"}],"stateMutability":"view"},{"type":"function","name":"getRoundData","inputs":[{"name":"_roundId","type":"uint80","internalType":"uint80"}],"outputs":[{"name":"","type":"uint80","internalType":"uint80"},{"name":"","type":"int256","internalType":"int256"},{"name":"","type":"uint256","internalType":"uint256"},{"name":"","type":"uint256","internalType":"uint256"},{"name":"","type":"uint80","internalType":"uint80"}],"stateMutability":"view"},{"type":"function","name":"getStartedAt","inputs":[{"name":"","type":"uint80","internalType":"uint80"}],"outputs":[{"name":"","type":"uint256","internalType":"uint256"}],"stateMutability":"view"},{"type":"function","name":"getTimestamp","inputs":[{"name":"","type":"uint80","internalType":"uint80"}],"outputs":[{"name":"","type":"uint256","internalType":"uint256"}],"stateMutability":"view"},{"type":"function","name":"latestAnswer","inputs":[],"outputs":[{"name":"","type":"int256","internalType":"int256"}],"stateMutability":"view"},{"type":"function","name":"latestRound","inputs":[],"outputs":[{"name":"","type":"uint80","internalType":"uint80"}],"stateMutability":"view"},{"type":"function","name":"latestRoundData","inputs":[],"outputs":[{"name":"","type":"uint80","internalType":"uint80"},{"name":"","type":"int256","internalType":"int256"},{"name":"","type":"uint256","internalType":"uint256"},{"name":"","type":"uint256","internalType":"uint256"},{"name":"","type":"uint80","internalType":"uint80"}],"stateMutability":"view"},{"type":"function","name":"latestTimestamp","inputs":[],"outputs":[{"name":"","type":"uint256","internalType":"uint256"}],"stateMutability":"view"},{"type":"function","name":"updateAnswer","inputs":[{"name":"_answer","type":"int256","internalType":"int256"}],"outputs":[],"stateMutability":"nonpayable"},{"type":"function","name":"updateRoundData","inputs":[{"name":"_roundId","type":"uint80","internalType":"uint80"},{"name":"_answer","type":"int256","internalType":"int256"},{"name":"_timestamp","type":"uint256","internalType":"uint256"},{"name":"_startedAt","type":"uint256","internalType":"uint256"}],"outputs":[],"stateMutability":"nonpayable"},{"type":"function","name":"version","inputs":[],"outputs":[{"name":"","type":"uint256","internalType":"uint256"}],"stateMutability":"view"}],"bytecode":{"object":"0x608060405260015f55348015610013575f5ffd5b50604051610897380380610897833981016040819052610032916100fb565b6001805460ff191660ff8516179055600261004d8282610250565b506100578261005f565b50505061033b565b60038054600191905f9061007d9084906001600160501b031661030a565b82546101009290920a6001600160501b0381810219909316918316021790915560048390554260058190556003805483165f908152600660209081526040808320979097558254851682526007815286822084905591549093168352600890529290209190915550565b634e487b7160e01b5f52604160045260245ffd5b5f5f5f6060848603121561010d575f5ffd5b835160ff8116811461011d575f5ffd5b6020850151604086015191945092506001600160401b0381111561013f575f5ffd5b8401601f8101861361014f575f5ffd5b80516001600160401b03811115610168576101686100e7565b604051601f8201601f19908116603f011681016001600160401b0381118282101715610196576101966100e7565b6040528181528282016020018810156101ad575f5ffd5b8160208401602083015e5f602083830101528093505050509250925092565b600181811c908216806101e057607f821691505b6020821081036101fe57634e487b7160e01b5f52602260045260245ffd5b50919050565b601f82111561024b57805f5260205f20601f840160051c810160208510156102295750805b601f840160051c820191505b81811015610248575f8155600101610235565b50505b505050565b81516001600160401b03811115610269576102696100e7565b61027d8161027784546101cc565b84610204565b6020601f8211600181146102af575f83156102985750848201515b5f19600385901b1c1916600184901b178455610248565b5f84815260208120601f198516915b828110156102de57878501518255602094850194600190920191016102be565b50848210156102fb57868401515f19600387901b60f8161c191681555b50505050600190811b01905550565b6001600160501b03818116838216019081111561033557634e487b7160e01b5f52601160045260245ffd5b92915050565b61054f806103485f395ff3fe608060405234801561000f575f5ffd5b50600436106100cb575f3560e01c8063668a0f02116100885780639a6fc8f5116100635780639a6fc8f5146101fe578063a87a20ce14610275578063f35bfacd14610288578063feaf968c146102a7575f5ffd5b8063668a0f02146101b55780637284e416146101e05780638205bf6a146101f5575f5ffd5b80630387c6a5146100cf5780631acce90314610101578063313ce567146101205780634aa2011f1461013f57806350d25bcd146101a457806354fd4d50146101ad575b5f5ffd5b6100ee6100dd36600461040e565b60086020525f908152604090205481565b6040519081526020015b60405180910390f35b6100ee61010f36600461040e565b60066020525f908152604090205481565b60015461012d9060ff1681565b60405160ff90911681526020016100f8565b6101a261014d36600461042e565b600380546001600160501b0390951669ffffffffffffffffffff1990951685179055600483905560058290555f9384526006602090815260408086209490945560078152838520929092556008909152912055565b005b6100ee60045481565b6100ee5f5481565b6003546101c8906001600160501b031681565b6040516001600160501b0390911681526020016100f8565b6101e86102db565b6040516100f89190610464565b6100ee60055481565b61024161020c36600461040e565b6001600160501b0381165f90815260066020908152604080832054600883528184205460079093529220549293919290918490565b604080516001600160501b03968716815260208101959095528401929092526060830152909116608082015260a0016100f8565b6101a2610283366004610499565b61036b565b6100ee61029636600461040e565b60076020525f908152604090205481565b6003546004546001600160501b039091165f8181526008602090815260408083205460079092529091205491929183610241565b6060600280546102ea906104b0565b80601f0160208091040260200160405190810160405280929190818152602001828054610316906104b0565b80156103615780601f1061033857610100808354040283529160200191610361565b820191905f5260205f20905b81548152906001019060200180831161034457829003601f168201915b5050505050905090565b60038054600191905f906103899084906001600160501b03166104e8565b82546101009290920a6001600160501b0381810219909316918316021790915560048390554260058190556003805483165f908152600660209081526040808320979097558254851682526007815286822084905591549093168352600890529290209190915550565b80356001600160501b0381168114610409575f5ffd5b919050565b5f6020828403121561041e575f5ffd5b610427826103f3565b9392505050565b5f5f5f5f60808587031215610441575f5ffd5b61044a856103f3565b966020860135965060408601359560600135945092505050565b602081525f82518060208401528060208501604085015e5f604082850101526040601f19601f83011684010191505092915050565b5f602082840312156104a9575f5ffd5b5035919050565b600181811c908216806104c457607f821691505b6020821081036104e257634e487b7160e01b5f52602260045260245ffd5b50919050565b6001600160501b03818116838216019081111561051357634e487b7160e01b5f52601160045260245ffd5b9291505056fea2646970667358221220411fa67a5b622ff2a860ac02ef21383a6032e1cde6df2fe24a3cb0081532bbdf64736f6c634300081c0033","linkReferences":{}},"methodIdentifiers":{"decimals()":"313ce567","description()":"7284e416","getAnswer(uint80)":"1acce903","getRoundData(uint80)":"9a6fc8f5","getStartedAt(uint80)":"0387c6a5","getTimestamp(uint80)":"f35bfacd","latestAnswer()":"50d25bcd","latestRound()":"668a0f02","latestRoundData()":"feaf968c","latestTimestamp()":"8205bf6a","updateAnswer(int256)":"a87a20ce","updateRoundData(uint80,int256,uint256,uint256)":"4aa2011f","version()":"54fd4d50"},"id":33}