{"abi":[{"type":"constructor","inputs":[{"name":"admin","type":"address","internalType":"address"}],"stateMutability":"nonpayable"},{"type":"function","name":"BURNER_ROLE","inputs":[],"outputs":[{"name":"","type":"bytes32","internalType":"bytes32"}],"stateMutability":"view"},{"type":"function","name":"DEFAULT_ADMIN_ROLE","inputs":[],"outputs":[{"name":"","type":"bytes32","internalType":"bytes32"}],"stateMutability":"view"},{"type":"function","name":"MAX_SUPPLY","inputs":[],"outputs":[{"name":"","type":"uint256","internalType":"uint256"}],"stateMutability":"view"},{"type":"function","name":"MINTER_ROLE","inputs":[],"outputs":[{"name":"","type":"bytes32","internalType":"bytes32"}],"stateMutability":"view"},{"type":"function","name":"allowance","inputs":[{"name":"owner","type":"address","internalType":"address"},{"name":"spender","type":"address","internalType":"address"}],"outputs":[{"name":"","type":"uint256","internalType":"uint256"}],"stateMutability":"view"},{"type":"function","name":"approve","inputs":[{"name":"spender","type":"address","internalType":"address"},{"name":"value","type":"uint256","internalType":"uint256"}],"outputs":[{"name":"","type":"bool","internalType":"bool"}],"stateMutability":"nonpayable"},{"type":"function","name":"balanceOf","inputs":[{"name":"account","type":"address","internalType":"address"}],"outputs":[{"name":"","type":"uint256","internalType":"uint256"}],"stateMutability":"view"},{"type":"function","name":"burn","inputs":[{"name":"from","type":"address","internalType":"address"},{"name":"amount","type":"uint256","internalType":"uint256"}],"outputs":[],"stateMutability":"nonpayable"},{"type":"function","name":"decimals","inputs":[],"outputs":[{"name":"","type":"uint8","internalType":"uint8"}],"stateMutability":"view"},{"type":"function","name":"getRoleAdmin","inputs":[{"name":"role","type":"bytes32","internalType":"bytes32"}],"outputs":[{"name":"","type":"bytes32","internalType":"bytes32"}],"stateMutability":"view"},{"type":"function","name":"grantRole","inputs":[{"name":"role","type":"bytes32","internalType":"bytes32"},{"name":"account","type":"address","internalType":"address"}],"outputs":[],"stateMutability":"nonpayable"},{"type":"function","name":"hasRole","inputs":[{"name":"role","type":"bytes32","internalType":"bytes32"},{"name":"account","type":"address","internalType":"address"}],"outputs":[{"name":"","type":"bool","internalType":"bool"}],"stateMutability":"view"},{"type":"function","name":"mint","inputs":[{"name":"to","type":"address","internalType":"address"},{"name":"amount","type":"uint256","internalType":"uint256"}],"outputs":[],"stateMutability":"nonpayable"},{"type":"function","name":"name","inputs":[],"outputs":[{"name":"","type":"string","internalType":"string"}],"stateMutability":"view"},{"type":"function","name":"renounceRole","inputs":[{"name":"role","type":"bytes32","internalType":"bytes32"},{"name":"callerConfirmation","type":"address","internalType":"address"}],"outputs":[],"stateMutability":"nonpayable"},{"type":"function","name":"revokeRole","inputs":[{"name":"role","type":"bytes32","internalType":"bytes32"},{"name":"account","type":"address","internalType":"address"}],"outputs":[],"stateMutability":"nonpayable"},{"type":"function","name":"supportsInterface","inputs":[{"name":"interfaceId","type":"bytes4","internalType":"bytes4"}],"outputs":[{"name":"","type":"bool","internalType":"bool"}],"stateMutability":"view"},{"type":"function","name":"symbol","inputs":[],"outputs":[{"name":"","type":"string","internalType":"string"}],"stateMutability":"view"},{"type":"function","name":"totalSupply","inputs":[],"outputs":[{"name":"","type":"uint256","internalType":"uint256"}],"stateMutability":"view"},{"type":"function","name":"transfer","inputs":[{"name":"to","type":"address","internalType":"address"},{"name":"value","type":"uint256","internalType":"uint256"}],"outputs":[{"name":"","type":"bool","internalType":"bool"}],"stateMutability":"nonpayable"},{"type":"function","name":"transferFrom","inputs":[{"name":"from","type":"address","internalType":"address"},{"name":"to","type":"address","internalType":"address"},{"name":"value","type":"uint256","internalType":"uint256"}],"outputs":[{"name":"","type":"bool","internalType":"bool"}],"stateMutability":"nonpayable"},{"type":"event","name":"Approval","inputs":[{"name":"owner","type":"address","indexed":true,"internalType":"address"},{"name":"spender","type":"address","indexed":true,"internalType":"address"},{"name":"value","type":"uint256","indexed":false,"internalType":"uint256"}],"anonymous":false},{"type":"event","name":"RoleAdminChanged","inputs":[{"name":"role","type":"bytes32","indexed":true,"internalType":"bytes32"},{"name":"previousAdminRole","type":"bytes32","indexed":true,"internalType":"bytes32"},{"name":"newAdminRole","type":"bytes32","indexed":true,"internalType":"bytes32"}],"anonymous":false},{"type":"event","name":"RoleGranted","inputs":[{"name":"role","type":"bytes32","indexed":true,"internalType":"bytes32"},{"name":"account","type":"address","indexed":true,"internalType":"address"},{"name":"sender","type":"address","indexed":true,"internalType":"address"}],"anonymous":false},{"type":"event","name":"RoleRevoked","inputs":[{"name":"role","type":"bytes32","indexed":true,"internalType":"bytes32"},{"name":"account","type":"address","indexed":true,"internalType":"address"},{"name":"sender","type":"address","indexed":true,"internalType":"address"}],"anonymous":false},{"type":"event","name":"Transfer","inputs":[{"name":"from","type":"address","indexed":true,"internalType":"address"},{"name":"to","type":"address","indexed":true,"internalType":"address"},{"name":"value","type":"uint256","indexed":false,"internalType":"uint256"}],"anonymous":false},{"type":"error","name":"AccessControlBadConfirmation","inputs":[]},{"type":"error","name":"AccessControlUnauthorizedAccount","inputs":[{"name":"account","type":"address","internalType":"address"},{"name":"neededRole","type":"bytes32","internalType":"bytes32"}]},{"type":"error","name":"ERC20InsufficientAllowance","inputs":[{"name":"spender","type":"address","internalType":"address"},{"name":"allowance","type":"uint256","internalType":"uint256"},{"name":"needed","type":"uint256","internalType":"uint256"}]},{"type":"error","name":"ERC20InsufficientBalance","inputs":[{"name":"sender","type":"address","internalType":"address"},{"name":"balance","type":"uint256","internalType":"uint256"},{"name":"needed","type":"uint256","internalType":"uint256"}]},{"type":"error","name":"ERC20InvalidApprover","inputs":[{"name":"approver","type":"address","internalType":"address"}]},{"type":"error","name":"ERC20InvalidReceiver","inputs":[{"name":"receiver","type":"address","internalType":"address"}]},{"type":"error","name":"ERC20InvalidSender","inputs":[{"name":"sender","type":"address","internalType":"address"}]},{"type":"error","name":"ERC20InvalidSpender","inputs":[{"name":"spender","type":"address","internalType":"address"}]}],"bytecode":{"object":"0x608060405234801561000f575f5ffd5b50604051610f82380380610f8283398101604081905261002e916101b5565b6040518060400160405280601481526020017f4158505420476f6c6420537461626c65636f696e0000000000000000000000008152506040518060400160405280600381526020016241584760e81b815250816003908161008f919061027a565b50600461009c828261027a565b506100ab91505f905082610108565b506100d67f9f2df0fed2c77648de5860a4cc508cd0818c85b8b8a1ab4ceeef8d981c8956a682610108565b506101017f3c11d16cbaffd01df69ce1c404f6340ee057498f5f00246190ea54220576a84882610108565b5050610334565b5f8281526005602090815260408083206001600160a01b038516845290915281205460ff166101ac575f8381526005602090815260408083206001600160a01b03861684529091529020805460ff191660011790556101643390565b6001600160a01b0316826001600160a01b0316847f2f8788117e7eff1d82e926ec794901d17c78024a50270940304540a733656f0d60405160405180910390a45060016101af565b505f5b92915050565b5f602082840312156101c5575f5ffd5b81516001600160a01b03811681146101db575f5ffd5b9392505050565b634e487b7160e01b5f52604160045260245ffd5b600181811c9082168061020a57607f821691505b60208210810361022857634e487b7160e01b5f52602260045260245ffd5b50919050565b601f82111561027557805f5260205f20601f840160051c810160208510156102535750805b601f840160051c820191505b81811015610272575f815560010161025f565b50505b505050565b81516001600160401b03811115610293576102936101e2565b6102a7816102a184546101f6565b8461022e565b6020601f8211600181146102d9575f83156102c25750848201515b5f19600385901b1c1916600184901b178455610272565b5f84815260208120601f198516915b8281101561030857878501518255602094850194600190920191016102e8565b508482101561032557868401515f19600387901b60f8161c191681555b50505050600190811b01905550565b610c41806103415f395ff3fe608060405234801561000f575f5ffd5b5060043610610132575f3560e01c806336568abe116100b45780639dc29fac116100795780639dc29fac14610292578063a217fddf146102a5578063a9059cbb146102ac578063d5391393146102bf578063d547741f146102e6578063dd62ed3e146102f9575f5ffd5b806336568abe1461022957806340c10f191461023c57806370a082311461024f57806391d148541461027757806395d89b411461028a575f5ffd5b8063248a9ca3116100fa578063248a9ca3146101ab578063282c51f3146101cd5780632f2ff15d146101f4578063313ce5671461020957806332cb6b0c14610218575f5ffd5b806301ffc9a71461013657806306fdde031461015e578063095ea7b31461017357806318160ddd1461018657806323b872dd14610198575b5f5ffd5b610149610144366004610a52565b610331565b60405190151581526020015b60405180910390f35b610166610367565b6040516101559190610a80565b610149610181366004610ad0565b6103f7565b6002545b604051908152602001610155565b6101496101a6366004610af8565b61040e565b61018a6101b9366004610b32565b5f9081526005602052604090206001015490565b61018a7f3c11d16cbaffd01df69ce1c404f6340ee057498f5f00246190ea54220576a84881565b610207610202366004610b49565b610431565b005b60405160128152602001610155565b61018a69d3c21bcecceda100000081565b610207610237366004610b49565b61045b565b61020761024a366004610ad0565b610493565b61018a61025d366004610b73565b6001600160a01b03165f9081526020819052604090205490565b610149610285366004610b49565b61052f565b610166610559565b6102076102a0366004610ad0565b610568565b61018a5f81565b6101496102ba366004610ad0565b61059c565b61018a7f9f2df0fed2c77648de5860a4cc508cd0818c85b8b8a1ab4ceeef8d981c8956a681565b6102076102f4366004610b49565b6105a9565b61018a610307366004610b8c565b6001600160a01b039182165f90815260016020908152604080832093909416825291909152205490565b5f6001600160e01b03198216637965db0b60e01b148061036157506301ffc9a760e01b6001600160e01b03198316145b92915050565b60606003805461037690610bb4565b80601f01602080910402602001604051908101604052809291908181526020018280546103a290610bb4565b80156103ed5780601f106103c4576101008083540402835291602001916103ed565b820191905f5260205f20905b8154815290600101906020018083116103d057829003601f168201915b5050505050905090565b5f336104048185856105cd565b5060019392505050565b5f3361041b8582856105da565b61042685858561064f565b506001949350505050565b5f8281526005602052604090206001015461044b816106ac565b61045583836106b9565b50505050565b6001600160a01b03811633146104845760405163334bd91960e11b815260040160405180910390fd5b61048e828261074a565b505050565b7f9f2df0fed2c77648de5860a4cc508cd0818c85b8b8a1ab4ceeef8d981c8956a66104bd816106ac565b69d3c21bcecceda1000000826104d260025490565b6104dc9190610bec565b11156105255760405162461bcd60e51b815260206004820152601360248201527213505617d4d55414131648195e18d959591959606a1b60448201526064015b60405180910390fd5b61048e83836107b5565b5f9182526005602090815260408084206001600160a01b0393909316845291905290205460ff1690565b60606004805461037690610bb4565b7f3c11d16cbaffd01df69ce1c404f6340ee057498f5f00246190ea54220576a848610592816106ac565b61048e83836107ed565b5f3361040481858561064f565b5f828152600560205260409020600101546105c3816106ac565b610455838361074a565b61048e8383836001610821565b6001600160a01b038381165f908152600160209081526040808320938616835292905220545f198114610455578181101561064157604051637dc7a0d960e11b81526001600160a01b0384166004820152602481018290526044810183905260640161051c565b61045584848484035f610821565b6001600160a01b03831661067857604051634b637e8f60e11b81525f600482015260240161051c565b6001600160a01b0382166106a15760405163ec442f0560e01b81525f600482015260240161051c565b61048e8383836108f3565b6106b68133610a19565b50565b5f6106c4838361052f565b610743575f8381526005602090815260408083206001600160a01b03861684529091529020805460ff191660011790556106fb3390565b6001600160a01b0316826001600160a01b0316847f2f8788117e7eff1d82e926ec794901d17c78024a50270940304540a733656f0d60405160405180910390a4506001610361565b505f610361565b5f610755838361052f565b15610743575f8381526005602090815260408083206001600160a01b0386168085529252808320805460ff1916905551339286917ff6391f5c32d9c69d2a47ea670b442974b53935d1edc7fd64eb21e047a839171b9190a4506001610361565b6001600160a01b0382166107de5760405163ec442f0560e01b81525f600482015260240161051c565b6107e95f83836108f3565b5050565b6001600160a01b03821661081657604051634b637e8f60e11b81525f600482015260240161051c565b6107e9825f836108f3565b6001600160a01b03841661084a5760405163e602df0560e01b81525f600482015260240161051c565b6001600160a01b03831661087357604051634a1406b160e11b81525f600482015260240161051c565b6001600160a01b038085165f908152600160209081526040808320938716835292905220829055801561045557826001600160a01b0316846001600160a01b03167f8c5be1e5ebec7d5bd14f71427d1e84f3dd0314c0f7b2291e5b200ac8c7c3b925846040516108e591815260200190565b60405180910390a350505050565b6001600160a01b03831661091d578060025f8282546109129190610bec565b9091555061098d9050565b6001600160a01b0383165f908152602081905260409020548181101561096f5760405163391434e360e21b81526001600160a01b0385166004820152602481018290526044810183905260640161051c565b6001600160a01b0384165f9081526020819052604090209082900390555b6001600160a01b0382166109a9576002805482900390556109c7565b6001600160a01b0382165f9081526020819052604090208054820190555b816001600160a01b0316836001600160a01b03167fddf252ad1be2c89b69c2b068fc378daa952ba7f163c4a11628f55a4df523b3ef83604051610a0c91815260200190565b60405180910390a3505050565b610a23828261052f565b6107e95760405163e2517d3f60e01b81526001600160a01b03821660048201526024810183905260440161051c565b5f60208284031215610a62575f5ffd5b81356001600160e01b031981168114610a79575f5ffd5b9392505050565b602081525f82518060208401528060208501604085015e5f604082850101526040601f19601f83011684010191505092915050565b80356001600160a01b0381168114610acb575f5ffd5b919050565b5f5f60408385031215610ae1575f5ffd5b610aea83610ab5565b946020939093013593505050565b5f5f5f60608486031215610b0a575f5ffd5b610b1384610ab5565b9250610b2160208501610ab5565b929592945050506040919091013590565b5f60208284031215610b42575f5ffd5b5035919050565b5f5f60408385031215610b5a575f5ffd5b82359150610b6a60208401610ab5565b90509250929050565b5f60208284031215610b83575f5ffd5b610a7982610ab5565b5f5f60408385031215610b9d575f5ffd5b610ba683610ab5565b9150610b6a60208401610ab5565b600181811c90821680610bc857607f821691505b602082108103610be657634e487b7160e01b5f52602260045260245ffd5b50919050565b8082018082111561036157634e487b7160e01b5f52601160045260245ffdfea26469706673582212202a2ff3cbb1823f4d2ffae08e12477a12d211973e03c7077af784e5ded59f35a264736f6c634300081c0033","linkReferences":{}},"methodIdentifiers":{"BURNER_ROLE()":"282c51f3","DEFAULT_ADMIN_ROLE()":"a217fddf","MAX_SUPPLY()":"32cb6b0c","MINTER_ROLE()":"d5391393","allowance(address,address)":"dd62ed3e","approve(address,uint256)":"095ea7b3","balanceOf(address)":"70a08231","burn(address,uint256)":"9dc29fac","decimals()":"313ce567","getRoleAdmin(bytes32)":"248a9ca3","grantRole(bytes32,address)":"2f2ff15d","hasRole(bytes32,address)":"91d14854","mint(address,uint256)":"40c10f19","name()":"06fdde03","renounceRole(bytes32,address)":"36568abe","revokeRole(bytes32,address)":"d547741f","supportsInterface(bytes4)":"01ffc9a7","symbol()":"95d89b41","totalSupply()":"18160ddd","transfer(address,uint256)":"a9059cbb","transferFrom(address,address,uint256)":"23b872dd"},"id":33}