{"abi":[{"type":"constructor","inputs":[{"name":"_goldPriceFeed","type":"address","internalType":"address"}],"stateMutability":"nonpayable"},{"type":"receive","stateMutability":"payable"},{"type":"function","name":"COLLATERALIZATION_RATIO","inputs":[],"outputs":[{"name":"","type":"uint256","internalType":"uint256"}],"stateMutability":"view"},{"type":"function","name":"GOLD_DECIMALS","inputs":[],"outputs":[{"name":"","type":"uint256","internalType":"uint256"}],"stateMutability":"view"},{"type":"function","name":"allowance","inputs":[{"name":"owner","type":"address","internalType":"address"},{"name":"spender","type":"address","internalType":"address"}],"outputs":[{"name":"","type":"uint256","internalType":"uint256"}],"stateMutability":"view"},{"type":"function","name":"approve","inputs":[{"name":"spender","type":"address","internalType":"address"},{"name":"value","type":"uint256","internalType":"uint256"}],"outputs":[{"name":"","type":"bool","internalType":"bool"}],"stateMutability":"nonpayable"},{"type":"function","name":"balanceOf","inputs":[{"name":"account","type":"address","internalType":"address"}],"outputs":[{"name":"","type":"uint256","internalType":"uint256"}],"stateMutability":"view"},{"type":"function","name":"decimals","inputs":[],"outputs":[{"name":"","type":"uint8","internalType":"uint8"}],"stateMutability":"view"},{"type":"function","name":"depositedETH","inputs":[{"name":"","type":"address","internalType":"address"}],"outputs":[{"name":"","type":"uint256","internalType":"uint256"}],"stateMutability":"view"},{"type":"function","name":"getGoldPrice","inputs":[],"outputs":[{"name":"","type":"uint256","internalType":"uint256"}],"stateMutability":"view"},{"type":"function","name":"mintStablecoin","inputs":[],"outputs":[],"stateMutability":"payable"},{"type":"function","name":"name","inputs":[],"outputs":[{"name":"","type":"string","internalType":"string"}],"stateMutability":"view"},{"type":"function","name":"owner","inputs":[],"outputs":[{"name":"","type":"address","internalType":"address"}],"stateMutability":"view"},{"type":"function","name":"redeemStablecoin","inputs":[{"name":"stablecoinAmount","type":"uint256","internalType":"uint256"}],"outputs":[],"stateMutability":"nonpayable"},{"type":"function","name":"renounceOwnership","inputs":[],"outputs":[],"stateMutability":"nonpayable"},{"type":"function","name":"symbol","inputs":[],"outputs":[{"name":"","type":"string","internalType":"string"}],"stateMutability":"view"},{"type":"function","name":"totalSupply","inputs":[],"outputs":[{"name":"","type":"uint256","internalType":"uint256"}],"stateMutability":"view"},{"type":"function","name":"transfer","inputs":[{"name":"to","type":"address","internalType":"address"},{"name":"value","type":"uint256","internalType":"uint256"}],"outputs":[{"name":"","type":"bool","internalType":"bool"}],"stateMutability":"nonpayable"},{"type":"function","name":"transferFrom","inputs":[{"name":"from","type":"address","internalType":"address"},{"name":"to","type":"address","internalType":"address"},{"name":"value","type":"uint256","internalType":"uint256"}],"outputs":[{"name":"","type":"bool","internalType":"bool"}],"stateMutability":"nonpayable"},{"type":"function","name":"transferOwnership","inputs":[{"name":"newOwner","type":"address","internalType":"address"}],"outputs":[],"stateMutability":"nonpayable"},{"type":"function","name":"updateGoldPriceFeed","inputs":[{"name":"newPriceFeed","type":"address","internalType":"address"}],"outputs":[],"stateMutability":"nonpayable"},{"type":"function","name":"withdrawExcessCollateral","inputs":[{"name":"amount","type":"uint256","internalType":"uint256"}],"outputs":[],"stateMutability":"nonpayable"},{"type":"event","name":"Approval","inputs":[{"name":"owner","type":"address","indexed":true,"internalType":"address"},{"name":"spender","type":"address","indexed":true,"internalType":"address"},{"name":"value","type":"uint256","indexed":false,"internalType":"uint256"}],"anonymous":false},{"type":"event","name":"CollateralWithdrawn","inputs":[{"name":"owner","type":"address","indexed":true,"internalType":"address"},{"name":"amount","type":"uint256","indexed":false,"internalType":"uint256"}],"anonymous":false},{"type":"event","name":"GoldPriceFeedUpdated","inputs":[{"name":"newPriceFeed","type":"address","indexed":true,"internalType":"address"}],"anonymous":false},{"type":"event","name":"Mint","inputs":[{"name":"user","type":"address","indexed":true,"internalType":"address"},{"name":"ethAmount","type":"uint256","indexed":false,"internalType":"uint256"},{"name":"stablecoinAmount","type":"uint256","indexed":false,"internalType":"uint256"}],"anonymous":false},{"type":"event","name":"OwnershipTransferred","inputs":[{"name":"previousOwner","type":"address","indexed":true,"internalType":"address"},{"name":"newOwner","type":"address","indexed":true,"internalType":"address"}],"anonymous":false},{"type":"event","name":"Redeem","inputs":[{"name":"user","type":"address","indexed":true,"internalType":"address"},{"name":"stablecoinAmount","type":"uint256","indexed":false,"internalType":"uint256"},{"name":"ethAmount","type":"uint256","indexed":false,"internalType":"uint256"}],"anonymous":false},{"type":"event","name":"Transfer","inputs":[{"name":"from","type":"address","indexed":true,"internalType":"address"},{"name":"to","type":"address","indexed":true,"internalType":"address"},{"name":"value","type":"uint256","indexed":false,"internalType":"uint256"}],"anonymous":false},{"type":"error","name":"ERC20InsufficientAllowance","inputs":[{"name":"spender","type":"address","internalType":"address"},{"name":"allowance","type":"uint256","internalType":"uint256"},{"name":"needed","type":"uint256","internalType":"uint256"}]},{"type":"error","name":"ERC20InsufficientBalance","inputs":[{"name":"sender","type":"address","internalType":"address"},{"name":"balance","type":"uint256","internalType":"uint256"},{"name":"needed","type":"uint256","internalType":"uint256"}]},{"type":"error","name":"ERC20InvalidApprover","inputs":[{"name":"approver","type":"address","internalType":"address"}]},{"type":"error","name":"ERC20InvalidReceiver","inputs":[{"name":"receiver","type":"address","internalType":"address"}]},{"type":"error","name":"ERC20InvalidSender","inputs":[{"name":"sender","type":"address","internalType":"address"}]},{"type":"error","name":"ERC20InvalidSpender","inputs":[{"name":"spender","type":"address","internalType":"address"}]},{"type":"error","name":"OwnableInvalidOwner","inputs":[{"name":"owner","type":"address","internalType":"address"}]},{"type":"error","name":"OwnableUnauthorizedAccount","inputs":[{"name":"account","type":"address","internalType":"address"}]}],"bytecode":{"object":"0x608060405234801561000f575f5ffd5b5060405161136e38038061136e83398101604081905261002e91610142565b336040518060400160405280600f81526020016e23b7b6321029ba30b13632b1b7b4b760891b8152506040518060400160405280600681526020016511d3111554d160d21b81525081600390816100859190610207565b5060046100928282610207565b5050506001600160a01b0381166100c257604051631e4fbdf760e01b81525f600482015260240160405180910390fd5b6100cb816100f1565b50600680546001600160a01b0319166001600160a01b03929092169190911790556102c1565b600580546001600160a01b038381166001600160a01b0319831681179093556040519116919082907f8be0079c531659141344cd1fd0a4f28419497f9722a3daafe3b4186f6b6457e0905f90a35050565b5f60208284031215610152575f5ffd5b81516001600160a01b0381168114610168575f5ffd5b9392505050565b634e487b7160e01b5f52604160045260245ffd5b600181811c9082168061019757607f821691505b6020821081036101b557634e487b7160e01b5f52602260045260245ffd5b50919050565b601f82111561020257805f5260205f20601f840160051c810160208510156101e05750805b601f840160051c820191505b818110156101ff575f81556001016101ec565b50505b505050565b81516001600160401b038111156102205761022061016f565b6102348161022e8454610183565b846101bb565b6020601f821160018114610266575f831561024f5750848201515b5f19600385901b1c1916600184901b1784556101ff565b5f84815260208120601f198516915b828110156102955787850151825560209485019460019092019101610275565b50848210156102b257868401515f19600387901b60f8161c191681555b50505050600190811b01905550565b6110a0806102ce5f395ff3fe60806040526004361061011e575f3560e01c80638da5cb5b1161009d578063da6bae1011610062578063da6bae10146102ec578063dd62ed3e14610300578063e939e30714610344578063f2fde38b14610363578063f5db8bc714610382575f5ffd5b80638da5cb5b1461027657806395d89b411461029d578063a080552f146102b1578063a9059cbb146102b9578063bac36204146102d8575f5ffd5b8063313ce567116100e3578063313ce567146101e05780633402ff1d146101fb57806370a082311461020f578063715018a61461024357806380e4137614610257575f5ffd5b8063055936a71461012957806306fdde031461014a578063095ea7b31461017457806318160ddd146101a357806323b872dd146101c1575f5ffd5b3661012557005b5f5ffd5b348015610134575f5ffd5b50610148610143366004610d81565b6103ad565b005b348015610155575f5ffd5b5061015e6103fe565b60405161016b9190610da1565b60405180910390f35b34801561017f575f5ffd5b5061019361018e366004610dd6565b61048e565b604051901515815260200161016b565b3480156101ae575f5ffd5b506002545b60405190815260200161016b565b3480156101cc575f5ffd5b506101936101db366004610dfe565b6104a7565b3480156101eb575f5ffd5b506040516012815260200161016b565b348015610206575f5ffd5b506101b3609681565b34801561021a575f5ffd5b506101b3610229366004610d81565b6001600160a01b03165f9081526020819052604090205490565b34801561024e575f5ffd5b506101486104ca565b348015610262575f5ffd5b50610148610271366004610e38565b6104dd565b348015610281575f5ffd5b506005546040516001600160a01b03909116815260200161016b565b3480156102a8575f5ffd5b5061015e61062c565b61014861063b565b3480156102c4575f5ffd5b506101936102d3366004610dd6565b6107b6565b3480156102e3575f5ffd5b506101b3600881565b3480156102f7575f5ffd5b506101b36107c3565b34801561030b575f5ffd5b506101b361031a366004610e4f565b6001600160a01b039182165f90815260016020908152604080832093909416825291909152205490565b34801561034f575f5ffd5b5061014861035e366004610e38565b610888565b34801561036e575f5ffd5b5061014861037d366004610d81565b610961565b34801561038d575f5ffd5b506101b361039c366004610d81565b60076020525f908152604090205481565b6103b561099e565b600680546001600160a01b0319166001600160a01b0383169081179091556040517fbfaa39fca396e2a84ee5904919e2f406c9bcb24e75fa1cee9c4806cd3023da22905f90a250565b60606003805461040d90610e80565b80601f016020809104026020016040519081016040528092919081815260200182805461043990610e80565b80156104845780601f1061045b57610100808354040283529160200191610484565b820191905f5260205f20905b81548152906001019060200180831161046757829003601f168201915b5050505050905090565b5f3361049b8185856109cb565b60019150505b92915050565b5f336104b48582856109dd565b6104bf858585610a59565b506001949350505050565b6104d261099e565b6104db5f610ab6565b565b335f908152602081905260409020548111156105375760405162461bcd60e51b8152602060048201526014602482015273496e73756666696369656e742062616c616e636560601b60448201526064015b60405180910390fd5b5f6105406107c3565b90505f816105506008600a610faf565b61055a9085610fba565b6105649190610fd1565b9050804710156105b65760405162461bcd60e51b815260206004820152601960248201527f496e73756666696369656e742045544820726573657276657300000000000000604482015260640161052e565b6105c03384610b07565b604051339082156108fc029083905f818181858888f193505050501580156105ea573d5f5f3e3d5ffd5b50604080518481526020810183905233917fe5b754fb1abb7f01b499791d0b820ae3b6af3424ac1c59768edb53f4ec31a92991015b60405180910390a2505050565b60606004805461040d90610e80565b5f341161067d5760405162461bcd60e51b815260206004820152601060248201526f09aeae6e840c8cae0dee6d2e8408aa8960831b604482015260640161052e565b5f6106866107c3565b90505f6106956008600a610faf565b61069f8334610fba565b6106a99190610fd1565b90505f60646106b9609684610fba565b6106c39190610fd1565b9050806106d26008600a610faf565b335f9081526007602052604090205485906106ee903490610ff0565b6106f89190610fba565b6107029190610fd1565b10156107505760405162461bcd60e51b815260206004820152601760248201527f496e73756666696369656e7420636f6c6c61746572616c000000000000000000604482015260640161052e565b335f908152600760205260408120805434929061076e908490610ff0565b9091555061077e90503383610b3f565b604080513481526020810184905233917f4c209b5fc8ad50758f13e2e1088ba56a560dff690a1c6fef26394f4c03821c4f910161061f565b5f3361049b818585610a59565b5f5f60065f9054906101000a90046001600160a01b03166001600160a01b031663feaf968c6040518163ffffffff1660e01b815260040160a060405180830381865afa158015610815573d5f5f3e3d5ffd5b505050506040513d601f19601f82011682018060405250810190610839919061101c565b5050509150505f81136108835760405162461bcd60e51b8152602060048201526012602482015271496e76616c6964207072696365206461746160701b604482015260640161052e565b919050565b61089061099e565b804710156108d85760405162461bcd60e51b8152602060048201526015602482015274139bdd08195b9bdd59da0818dbdb1b185d195c985b605a1b604482015260640161052e565b6005546040516001600160a01b039091169082156108fc029083905f818181858888f1935050505015801561090f573d5f5f3e3d5ffd5b506005546001600160a01b03166001600160a01b03167fc30fcfbcaac9e0deffa719714eaa82396ff506a0d0d0eebe170830177288715d8260405161095691815260200190565b60405180910390a250565b61096961099e565b6001600160a01b03811661099257604051631e4fbdf760e01b81525f600482015260240161052e565b61099b81610ab6565b50565b6005546001600160a01b031633146104db5760405163118cdaa760e01b815233600482015260240161052e565b6109d88383836001610b73565b505050565b6001600160a01b038381165f908152600160209081526040808320938616835292905220545f19811015610a535781811015610a4557604051637dc7a0d960e11b81526001600160a01b0384166004820152602481018290526044810183905260640161052e565b610a5384848484035f610b73565b50505050565b6001600160a01b038316610a8257604051634b637e8f60e11b81525f600482015260240161052e565b6001600160a01b038216610aab5760405163ec442f0560e01b81525f600482015260240161052e565b6109d8838383610c45565b600580546001600160a01b038381166001600160a01b0319831681179093556040519116919082907f8be0079c531659141344cd1fd0a4f28419497f9722a3daafe3b4186f6b6457e0905f90a35050565b6001600160a01b038216610b3057604051634b637e8f60e11b81525f600482015260240161052e565b610b3b825f83610c45565b5050565b6001600160a01b038216610b685760405163ec442f0560e01b81525f600482015260240161052e565b610b3b5f8383610c45565b6001600160a01b038416610b9c5760405163e602df0560e01b81525f600482015260240161052e565b6001600160a01b038316610bc557604051634a1406b160e11b81525f600482015260240161052e565b6001600160a01b038085165f9081526001602090815260408083209387168352929052208290558015610a5357826001600160a01b0316846001600160a01b03167f8c5be1e5ebec7d5bd14f71427d1e84f3dd0314c0f7b2291e5b200ac8c7c3b92584604051610c3791815260200190565b60405180910390a350505050565b6001600160a01b038316610c6f578060025f828254610c649190610ff0565b90915550610cdf9050565b6001600160a01b0383165f9081526020819052604090205481811015610cc15760405163391434e360e21b81526001600160a01b0385166004820152602481018290526044810183905260640161052e565b6001600160a01b0384165f9081526020819052604090209082900390555b6001600160a01b038216610cfb57600280548290039055610d19565b6001600160a01b0382165f9081526020819052604090208054820190555b816001600160a01b0316836001600160a01b03167fddf252ad1be2c89b69c2b068fc378daa952ba7f163c4a11628f55a4df523b3ef83604051610d5e91815260200190565b60405180910390a3505050565b80356001600160a01b0381168114610883575f5ffd5b5f60208284031215610d91575f5ffd5b610d9a82610d6b565b9392505050565b602081525f82518060208401528060208501604085015e5f604082850101526040601f19601f83011684010191505092915050565b5f5f60408385031215610de7575f5ffd5b610df083610d6b565b946020939093013593505050565b5f5f5f60608486031215610e10575f5ffd5b610e1984610d6b565b9250610e2760208501610d6b565b929592945050506040919091013590565b5f60208284031215610e48575f5ffd5b5035919050565b5f5f60408385031215610e60575f5ffd5b610e6983610d6b565b9150610e7760208401610d6b565b90509250929050565b600181811c90821680610e9457607f821691505b602082108103610eb257634e487b7160e01b5f52602260045260245ffd5b50919050565b634e487b7160e01b5f52601160045260245ffd5b6001815b6001841115610f0757808504811115610eeb57610eeb610eb8565b6001841615610ef957908102905b60019390931c928002610ed0565b935093915050565b5f82610f1d575060016104a1565b81610f2957505f6104a1565b8160018114610f3f5760028114610f4957610f65565b60019150506104a1565b60ff841115610f5a57610f5a610eb8565b50506001821b6104a1565b5060208310610133831016604e8410600b8410161715610f88575081810a6104a1565b610f945f198484610ecc565b805f1904821115610fa757610fa7610eb8565b029392505050565b5f610d9a8383610f0f565b80820281158282048414176104a1576104a1610eb8565b5f82610feb57634e487b7160e01b5f52601260045260245ffd5b500490565b808201808211156104a1576104a1610eb8565b805169ffffffffffffffffffff81168114610883575f5ffd5b5f5f5f5f5f60a08688031215611030575f5ffd5b61103986611003565b6020870151604088015160608901519297509095509350915061105e60808701611003565b9050929550929590935056fea2646970667358221220e299c2bff995146c56a77f4ecf89a0d6b57ad88706cd1a6b08d20a577aa8743c64736f6c634300081c0033","linkReferences":{}},"methodIdentifiers":{"COLLATERALIZATION_RATIO()":"3402ff1d","GOLD_DECIMALS()":"bac36204","allowance(address,address)":"dd62ed3e","approve(address,uint256)":"095ea7b3","balanceOf(address)":"70a08231","decimals()":"313ce567","depositedETH(address)":"f5db8bc7","getGoldPrice()":"da6bae10","mintStablecoin()":"a080552f","name()":"06fdde03","owner()":"8da5cb5b","redeemStablecoin(uint256)":"80e41376","renounceOwnership()":"715018a6","symbol()":"95d89b41","totalSupply()":"18160ddd","transfer(address,uint256)":"a9059cbb","transferFrom(address,address,uint256)":"23b872dd","transferOwnership(address)":"f2fde38b","updateGoldPriceFeed(address)":"055936a7","withdrawExcessCollateral(uint256)":"e939e307"},"id":28}